{
  "contractName": "MyContract",
  "abi": [
    {
      "inputs": [
        {
          "internalType": "string",
          "name": "",
          "type": "string"
        }
      ],
      "name": "CustomerArr",
      "outputs": [
        {
          "internalType": "string",
          "name": "name",
          "type": "string"
        },
        {
          "internalType": "string",
          "name": "phone",
          "type": "string"
        },
        {
          "internalType": "bool",
          "name": "isValue",
          "type": "bool"
        }
      ],
      "stateMutability": "view",
      "type": "function"
    },
    {
      "inputs": [],
      "name": "data",
      "outputs": [
        {
          "internalType": "uint256",
          "name": "",
          "type": "uint256"
        }
      ],
      "stateMutability": "view",
      "type": "function"
    },
    {
      "inputs": [],
      "name": "owner",
      "outputs": [
        {
          "internalType": "address",
          "name": "",
          "type": "address"
        }
      ],
      "stateMutability": "view",
      "type": "function"
    },
    {
      "inputs": [
        {
          "internalType": "string",
          "name": "",
          "type": "string"
        }
      ],
      "name": "qrArr",
      "outputs": [
        {
          "internalType": "uint256",
          "name": "status",
          "type": "uint256"
        },
        {
          "internalType": "string",
          "name": "brand",
          "type": "string"
        },
        {
          "internalType": "string",
          "name": "model",
          "type": "string"
        },
        {
          "internalType": "string",
          "name": "description",
          "type": "string"
        },
        {
          "internalType": "string",
          "name": "manufactuerName",
          "type": "string"
        },
        {
          "internalType": "string",
          "name": "manufactuerLocation",
          "type": "string"
        },
        {
          "internalType": "string",
          "name": "manufactuerTimestamp",
          "type": "string"
        },
        {
          "internalType": "string",
          "name": "retailer",
          "type": "string"
        }
      ],
      "stateMutability": "view",
      "type": "function"
    },
    {
      "inputs": [
        {
          "internalType": "string",
          "name": "",
          "type": "string"
        }
      ],
      "name": "retailerArr",
      "outputs": [
        {
          "internalType": "string",
          "name": "name",
          "type": "string"
        },
        {
          "internalType": "string",
          "name": "location",
          "type": "string"
        }
      ],
      "stateMutability": "view",
      "type": "function"
    },
    {
      "inputs": [],
      "name": "date",
      "outputs": [
        {
          "internalType": "uint256",
          "name": "",
          "type": "uint256"
        }
      ],
      "stateMutability": "view",
      "type": "function"
    },
    {
      "inputs": [
        {
          "internalType": "uint256",
          "name": "_data",
          "type": "uint256"
        }
      ],
      "name": "setData",
      "outputs": [],
      "stateMutability": "nonpayable",
      "type": "function"
    },
    {
      "inputs": [
        {
          "internalType": "string",
          "name": "_hashedEmail",
          "type": "string"
        },
        {
          "internalType": "string",
          "name": "_name",
          "type": "string"
        },
        {
          "internalType": "string",
          "name": "_phone",
          "type": "string"
        }
      ],
      "name": "createCustomer",
      "outputs": [
        {
          "internalType": "bool",
          "name": "",
          "type": "bool"
        }
      ],
      "stateMutability": "payable",
      "type": "function"
    },
    {
      "inputs": [
        {
          "internalType": "string",
          "name": "_hashedEmail",
          "type": "string"
        },
        {
          "internalType": "string",
          "name": "_name",
          "type": "string"
        },
        {
          "internalType": "string",
          "name": "_location",
          "type": "string"
        }
      ],
      "name": "createRetailer",
      "outputs": [
        {
          "internalType": "bool",
          "name": "",
          "type": "bool"
        }
      ],
      "stateMutability": "payable",
      "type": "function"
    },
    {
      "inputs": [
        {
          "internalType": "string",
          "name": "_hashedEmail",
          "type": "string"
        }
      ],
      "name": "getRetailer",
      "outputs": [
        {
          "internalType": "string",
          "name": "",
          "type": "string"
        }
      ],
      "stateMutability": "view",
      "type": "function"
    },
    {
      "inputs": [
        {
          "internalType": "string",
          "name": "_code",
          "type": "string"
        },
        {
          "internalType": "uint256",
          "name": "_status",
          "type": "uint256"
        },
        {
          "internalType": "string",
          "name": "_brand",
          "type": "string"
        },
        {
          "internalType": "string",
          "name": "_model",
          "type": "string"
        },
        {
          "internalType": "string",
          "name": "_description",
          "type": "string"
        },
        {
          "internalType": "string",
          "name": "_manufactuerName",
          "type": "string"
        },
        {
          "internalType": "string",
          "name": "_manufactuerLocation",
          "type": "string"
        },
        {
          "internalType": "string",
          "name": "_manufactuerTimestamp",
          "type": "string"
        }
      ],
      "name": "createCode",
      "outputs": [
        {
          "internalType": "bool",
          "name": "",
          "type": "bool"
        }
      ],
      "stateMutability": "payable",
      "type": "function"
    },
    {
      "inputs": [
        {
          "internalType": "string",
          "name": "_code",
          "type": "string"
        },
        {
          "internalType": "string",
          "name": "_retailerHashedEmail",
          "type": "string"
        }
      ],
      "name": "addRetailerToCode",
      "outputs": [
        {
          "internalType": "bool",
          "name": "",
          "type": "bool"
        }
      ],
      "stateMutability": "payable",
      "type": "function"
    },
    {
      "inputs": [
        {
          "internalType": "string",
          "name": "_code",
          "type": "string"
        }
      ],
      "name": "getNotOwnedCodeDetails",
      "outputs": [
        {
          "internalType": "uint256",
          "name": "",
          "type": "uint256"
        },
        {
          "internalType": "string",
          "name": "",
          "type": "string"
        },
        {
          "internalType": "string",
          "name": "",
          "type": "string"
        },
        {
          "internalType": "string",
          "name": "",
          "type": "string"
        },
        {
          "internalType": "string",
          "name": "",
          "type": "string"
        },
        {
          "internalType": "string",
          "name": "",
          "type": "string"
        },
        {
          "internalType": "string",
          "name": "",
          "type": "string"
        }
      ],
      "stateMutability": "view",
      "type": "function"
    },
    {
      "inputs": [
        {
          "internalType": "string",
          "name": "_code",
          "type": "string"
        }
      ],
      "name": "getOwnedCodeDetails",
      "outputs": [
        {
          "internalType": "string",
          "name": "",
          "type": "string"
        },
        {
          "internalType": "string",
          "name": "",
          "type": "string"
        }
      ],
      "stateMutability": "view",
      "type": "function"
    },
    {
      "inputs": [
        {
          "internalType": "string",
          "name": "_customer",
          "type": "string"
        }
      ],
      "name": "getCodes",
      "outputs": [
        {
          "internalType": "string[]",
          "name": "",
          "type": "string[]"
        }
      ],
      "stateMutability": "view",
      "type": "function"
    },
    {
      "inputs": [
        {
          "internalType": "string",
          "name": "_code",
          "type": "string"
        },
        {
          "internalType": "string",
          "name": "_customer",
          "type": "string"
        }
      ],
      "name": "reportStolen",
      "outputs": [
        {
          "internalType": "bool",
          "name": "",
          "type": "bool"
        }
      ],
      "stateMutability": "payable",
      "type": "function"
    },
    {
      "inputs": [
        {
          "internalType": "string",
          "name": "_code",
          "type": "string"
        },
        {
          "internalType": "string",
          "name": "_oldCustomer",
          "type": "string"
        },
        {
          "internalType": "string",
          "name": "_newCustomer",
          "type": "string"
        }
      ],
      "name": "changeOwner",
      "outputs": [
        {
          "internalType": "bool",
          "name": "",
          "type": "bool"
        }
      ],
      "stateMutability": "payable",
      "type": "function"
    },
    {
      "inputs": [
        {
          "internalType": "string",
          "name": "_code",
          "type": "string"
        },
        {
          "internalType": "string",
          "name": "_retailer",
          "type": "string"
        },
        {
          "internalType": "string",
          "name": "_customer",
          "type": "string"
        }
      ],
      "name": "initialOwner",
      "outputs": [
        {
          "internalType": "bool",
          "name": "",
          "type": "bool"
        }
      ],
      "stateMutability": "payable",
      "type": "function"
    }
  ],
  "bytecode": "0x608060405234801561001057600080fd5b50613eaf806100206000396000f3fe6080604052600436106101095760003560e01c80638da5cb5b11610095578063c19dd0d311610064578063c19dd0d3146103ac578063c5e69717146103ea578063ceff2efc1461041a578063ff9010401461044a578063fffc25de1461048757610109565b80638da5cb5b146102f157806391904ff81461031c578063b3e19d1a1461034c578063b5bd438b1461037c57610109565b8063323046b1116100dc578063323046b1146101ff57806355b059e81461022a5780635b4b73a91461025a57806373d4a13a146102835780637ab9c57c146102ae57610109565b806313d1b9211461010e578063274ad23a14610152578063285e9e161461018257806331ea7b64146101c0575b600080fd5b34801561011a57600080fd5b50610135600480360381019061013091906134f7565b6104c4565b6040516101499897969594939291906135e1565b60405180910390f35b61016c600480360381019061016791906136bc565b6108da565b6040516101799190613851565b60405180910390f35b34801561018e57600080fd5b506101a960048036038101906101a491906134f7565b610a4a565b6040516101b792919061386c565b60405180910390f35b3480156101cc57600080fd5b506101e760048036038101906101e291906134f7565b6110c8565b6040516101f6939291906138a3565b60405180910390f35b34801561020b57600080fd5b50610214611225565b60405161022191906138e8565b60405180910390f35b610244600480360381019061023f9190613903565b61122f565b6040516102519190613851565b60405180910390f35b34801561026657600080fd5b50610281600480360381019061027c91906139aa565b61133f565b005b34801561028f57600080fd5b50610298611349565b6040516102a591906138e8565b60405180910390f35b3480156102ba57600080fd5b506102d560048036038101906102d091906134f7565b61134f565b6040516102e897969594939291906139d7565b60405180910390f35b3480156102fd57600080fd5b506103066118a6565b6040516103139190613ab1565b60405180910390f35b61033660048036038101906103319190613acc565b6118ca565b6040516103439190613851565b60405180910390f35b61036660048036038101906103619190613acc565b611a44565b6040516103739190613851565b60405180910390f35b61039660048036038101906103919190613903565b611a86565b6040516103a39190613851565b60405180910390f35b3480156103b857600080fd5b506103d360048036038101906103ce91906134f7565b611b0a565b6040516103e192919061386c565b60405180910390f35b61040460048036038101906103ff9190613903565b611c54565b6040516104119190613851565b60405180910390f35b610434600480360381019061042f9190613903565b611fe9565b6040516104419190613851565b60405180910390f35b34801561045657600080fd5b50610471600480360381019061046c91906134f7565b612e29565b60405161047e9190613c50565b60405180910390f35b34801561049357600080fd5b506104ae60048036038101906104a991906134f7565b612f23565b6040516104bb9190613c72565b60405180910390f35b60048180516020810182018051848252602083016020850120818352809550505050505060009150905080600001549080600101805461050390613cc3565b80601f016020809104026020016040519081016040528092919081815260200182805461052f90613cc3565b801561057c5780601f106105515761010080835404028352916020019161057c565b820191906000526020600020905b81548152906001019060200180831161055f57829003601f168201915b50505050509080600201805461059190613cc3565b80601f01602080910402602001604051908101604052809291908181526020018280546105bd90613cc3565b801561060a5780601f106105df5761010080835404028352916020019161060a565b820191906000526020600020905b8154815290600101906020018083116105ed57829003601f168201915b50505050509080600301805461061f90613cc3565b80601f016020809104026020016040519081016040528092919081815260200182805461064b90613cc3565b80156106985780601f1061066d57610100808354040283529160200191610698565b820191906000526020600020905b81548152906001019060200180831161067b57829003601f168201915b5050505050908060040180546106ad90613cc3565b80601f01602080910402602001604051908101604052809291908181526020018280546106d990613cc3565b80156107265780601f106106fb57610100808354040283529160200191610726565b820191906000526020600020905b81548152906001019060200180831161070957829003601f168201915b50505050509080600501805461073b90613cc3565b80601f016020809104026020016040519081016040528092919081815260200182805461076790613cc3565b80156107b45780601f10610789576101008083540402835291602001916107b4565b820191906000526020600020905b81548152906001019060200180831161079757829003601f168201915b5050505050908060060180546107c990613cc3565b80601f01602080910402602001604051908101604052809291908181526020018280546107f590613cc3565b80156108425780601f1061081757610100808354040283529160200191610842565b820191906000526020600020905b81548152906001019060200180831161082557829003601f168201915b50505050509080600701805461085790613cc3565b80601f016020809104026020016040519081016040528092919081815260200182805461088390613cc3565b80156108d05780601f106108a5576101008083540402835291602001916108d0565b820191906000526020600020905b8154815290600101906020018083116108b357829003601f168201915b5050505050905088565b60006108e4613119565b88816000018181525050878160200181905250868160400181905250858160600181905250848160800181905250838160a00181905250828160c001819052508060048b6040516109359190613d31565b9081526020016040518091039020600082015181600001556020820151816001019080519060200190610969929190613165565b506040820151816002019080519060200190610986929190613165565b5060608201518160030190805190602001906109a3929190613165565b5060808201518160040190805190602001906109c0929190613165565b5060a08201518160050190805190602001906109dd929190613165565b5060c08201518160060190805190602001906109fa929190613165565b5060e0820151816007019080519060200190610a17929190613165565b50610100820151816008019080519060200190610a359291906131eb565b50905050600191505098975050505050505050565b6060806000600484604051610a5f9190613d31565b90815260200160405180910390206040518061012001604052908160008201548152602001600182018054610a9390613cc3565b80601f0160208091040260200160405190810160405280929190818152602001828054610abf90613cc3565b8015610b0c5780601f10610ae157610100808354040283529160200191610b0c565b820191906000526020600020905b815481529060010190602001808311610aef57829003601f168201915b50505050508152602001600282018054610b2590613cc3565b80601f0160208091040260200160405190810160405280929190818152602001828054610b5190613cc3565b8015610b9e5780601f10610b7357610100808354040283529160200191610b9e565b820191906000526020600020905b815481529060010190602001808311610b8157829003601f168201915b50505050508152602001600382018054610bb790613cc3565b80601f0160208091040260200160405190810160405280929190818152602001828054610be390613cc3565b8015610c305780601f10610c0557610100808354040283529160200191610c30565b820191906000526020600020905b815481529060010190602001808311610c1357829003601f168201915b50505050508152602001600482018054610c4990613cc3565b80601f0160208091040260200160405190810160405280929190818152602001828054610c7590613cc3565b8015610cc25780601f10610c9757610100808354040283529160200191610cc2565b820191906000526020600020905b815481529060010190602001808311610ca557829003601f168201915b50505050508152602001600582018054610cdb90613cc3565b80601f0160208091040260200160405190810160405280929190818152602001828054610d0790613cc3565b8015610d545780601f10610d2957610100808354040283529160200191610d54565b820191906000526020600020905b815481529060010190602001808311610d3757829003601f168201915b50505050508152602001600682018054610d6d90613cc3565b80601f0160208091040260200160405190810160405280929190818152602001828054610d9990613cc3565b8015610de65780601f10610dbb57610100808354040283529160200191610de6565b820191906000526020600020905b815481529060010190602001808311610dc957829003601f168201915b50505050508152602001600782018054610dff90613cc3565b80601f0160208091040260200160405190810160405280929190818152602001828054610e2b90613cc3565b8015610e785780601f10610e4d57610100808354040283529160200191610e78565b820191906000526020600020905b815481529060010190602001808311610e5b57829003601f168201915b5050505050815260200160088201805480602002602001604051908101604052809291908181526020016000905b82821015610f52578382906000526020600020018054610ec590613cc3565b80601f0160208091040260200160405190810160405280929190818152602001828054610ef190613cc3565b8015610f3e5780601f10610f1357610100808354040283529160200191610f3e565b820191906000526020600020905b815481529060010190602001808311610f2157829003601f168201915b505050505081526020019060010190610ea6565b5050505081525050905060038160e00151604051610f709190613d31565b908152602001604051809103902060000160038260e00151604051610f959190613d31565b9081526020016040518091039020600101818054610fb290613cc3565b80601f0160208091040260200160405190810160405280929190818152602001828054610fde90613cc3565b801561102b5780601f106110005761010080835404028352916020019161102b565b820191906000526020600020905b81548152906001019060200180831161100e57829003601f168201915b5050505050915080805461103e90613cc3565b80601f016020809104026020016040519081016040528092919081815260200182805461106a90613cc3565b80156110b75780601f1061108c576101008083540402835291602001916110b7565b820191906000526020600020905b81548152906001019060200180831161109a57829003601f168201915b505050505090509250925050915091565b60028180516020810182018051848252602083016020850120818352809550505050505060009150905080600001805461110190613cc3565b80601f016020809104026020016040519081016040528092919081815260200182805461112d90613cc3565b801561117a5780601f1061114f5761010080835404028352916020019161117a565b820191906000526020600020905b81548152906001019060200180831161115d57829003601f168201915b50505050509080600101805461118f90613cc3565b80601f01602080910402602001604051908101604052809291908181526020018280546111bb90613cc3565b80156112085780601f106111dd57610100808354040283529160200191611208565b820191906000526020600020905b8154815290600101906020018083116111eb57829003601f168201915b5050505050908060030160009054906101000a900460ff16905083565b6000600154905090565b60006002846040516112419190613d31565b908152602001604051809103902060030160009054906101000a900460ff161561126e5760009050611338565b61127661324b565b8381600001819052508281602001819052506001816060019015159081151581525050806002866040516112aa9190613d31565b908152602001604051809103902060008201518160000190805190602001906112d4929190613165565b5060208201518160010190805190602001906112f1929190613165565b50604082015181600201908051906020019061130e9291906131eb565b5060608201518160030160006101000a81548160ff02191690831515021790555090505060019150505b9392505050565b8060018190555050565b60015481565b6000606080606080606080600060048960405161136c9190613d31565b908152602001604051809103902060405180610120016040529081600082015481526020016001820180546113a090613cc3565b80601f01602080910402602001604051908101604052809291908181526020018280546113cc90613cc3565b80156114195780601f106113ee57610100808354040283529160200191611419565b820191906000526020600020905b8154815290600101906020018083116113fc57829003601f168201915b5050505050815260200160028201805461143290613cc3565b80601f016020809104026020016040519081016040528092919081815260200182805461145e90613cc3565b80156114ab5780601f10611480576101008083540402835291602001916114ab565b820191906000526020600020905b81548152906001019060200180831161148e57829003601f168201915b505050505081526020016003820180546114c490613cc3565b80601f01602080910402602001604051908101604052809291908181526020018280546114f090613cc3565b801561153d5780601f106115125761010080835404028352916020019161153d565b820191906000526020600020905b81548152906001019060200180831161152057829003601f168201915b5050505050815260200160048201805461155690613cc3565b80601f016020809104026020016040519081016040528092919081815260200182805461158290613cc3565b80156115cf5780601f106115a4576101008083540402835291602001916115cf565b820191906000526020600020905b8154815290600101906020018083116115b257829003601f168201915b505050505081526020016005820180546115e890613cc3565b80601f016020809104026020016040519081016040528092919081815260200182805461161490613cc3565b80156116615780601f1061163657610100808354040283529160200191611661565b820191906000526020600020905b81548152906001019060200180831161164457829003601f168201915b5050505050815260200160068201805461167a90613cc3565b80601f01602080910402602001604051908101604052809291908181526020018280546116a690613cc3565b80156116f35780601f106116c8576101008083540402835291602001916116f3565b820191906000526020600020905b8154815290600101906020018083116116d657829003601f168201915b5050505050815260200160078201805461170c90613cc3565b80601f016020809104026020016040519081016040528092919081815260200182805461173890613cc3565b80156117855780601f1061175a57610100808354040283529160200191611785565b820191906000526020600020905b81548152906001019060200180831161176857829003601f168201915b5050505050815260200160088201805480602002602001604051908101604052809291908181526020016000905b8282101561185f5783829060005260206000200180546117d290613cc3565b80601f01602080910402602001604051908101604052809291908181526020018280546117fe90613cc3565b801561184b5780601f106118205761010080835404028352916020019161184b565b820191906000526020600020905b81548152906001019060200180831161182e57829003601f168201915b5050505050815260200190600101906117b3565b50505050815250509050806000015181602001518260400151836060015184608001518560a001518660c00151975097509750975097509750975050919395979092949650565b60008054906101000a900473ffffffffffffffffffffffffffffffffffffffff1681565b6000806002836040516118dd9190613d31565b908152602001604051809103902060030160009054906101000a900460ff1615611a3857600090506002836040516119159190613d31565b908152602001604051809103902060020180549050811015611a3757611a006002846040516119449190613d31565b9081526020016040518091039020600201828154811061196757611966613d48565b5b90600052602060002001805461197c90613cc3565b80601f01602080910402602001604051908101604052809291908181526020018280546119a890613cc3565b80156119f55780601f106119ca576101008083540402835291602001916119f5565b820191906000526020600020905b8154815290600101906020018083116119d857829003601f168201915b505050505085612fd6565b15611a2d576002600485604051611a179190613d31565b9081526020016040518091039020600001819055505b6001915050611a3e565b5b60009150505b92915050565b600081600484604051611a579190613d31565b90815260200160405180910390206007019080519060200190611a7b929190613165565b506001905092915050565b6000611a90613275565b83816000018190525082816020018190525080600386604051611ab39190613d31565b90815260200160405180910390206000820151816000019080519060200190611add929190613165565b506020820151816001019080519060200190611afa929190613165565b5090505060019150509392505050565b600381805160208101820180518482526020830160208501208183528095505050505050600091509050806000018054611b4390613cc3565b80601f0160208091040260200160405190810160405280929190818152602001828054611b6f90613cc3565b8015611bbc5780601f10611b9157610100808354040283529160200191611bbc565b820191906000526020600020905b815481529060010190602001808311611b9f57829003601f168201915b505050505090806001018054611bd190613cc3565b80601f0160208091040260200160405190810160405280929190818152602001828054611bfd90613cc3565b8015611c4a5780601f10611c1f57610100808354040283529160200191611c4a565b820191906000526020600020905b815481529060010190602001808311611c2d57829003601f168201915b5050505050905082565b600080611d0a600486604051611c6a9190613d31565b90815260200160405180910390206007018054611c8690613cc3565b80601f0160208091040260200160405190810160405280929190818152602001828054611cb290613cc3565b8015611cff5780601f10611cd457610100808354040283529160200191611cff565b820191906000526020600020905b815481529060010190602001808311611ce257829003601f168201915b505050505085612fd6565b15611fdc57600283604051611d1f9190613d31565b908152602001604051809103902060030160009054906101000a900460ff1615611fdb57600485604051611d539190613d31565b908152602001604051809103902060080183908060018154018082558091505060019003906000526020600020016000909190919091509080519060200190611d9d929190613165565b506001600486604051611db09190613d31565b9081526020016040518091039020600001819055506000600284604051611dd79190613d31565b90815260200160405180910390206002018054905090506000811415611ee457600284604051611e079190613d31565b908152602001604051809103902060020186908060018154018082558091505060019003906000526020600020016000909190919091509080519060200190611e51929190613165565b50600284604051611e629190613d31565b908152602001604051809103902060020180600181540180825580915050600190039060005260206000200160006040518060400160405280600481526020017f6861636b0000000000000000000000000000000000000000000000000000000081525090919091509080519060200190611ede929190613165565b50611fd0565b85600285604051611ef59190613d31565b9081526020016040518091039020600201600183611f139190613def565b81548110611f2457611f23613d48565b5b906000526020600020019080519060200190611f41929190613165565b50600284604051611f529190613d31565b908152602001604051809103902060020180600181540180825580915050600190039060005260206000200160006040518060400160405280600481526020017f6861636b0000000000000000000000000000000000000000000000000000000081525090919091509080519060200190611fce929190613165565b505b600192505050611fe2565b5b60009150505b9392505050565b600080600080600487604051611fff9190613d31565b9081526020016040518091039020604051806101200160405290816000820154815260200160018201805461203390613cc3565b80601f016020809104026020016040519081016040528092919081815260200182805461205f90613cc3565b80156120ac5780601f10612081576101008083540402835291602001916120ac565b820191906000526020600020905b81548152906001019060200180831161208f57829003601f168201915b505050505081526020016002820180546120c590613cc3565b80601f01602080910402602001604051908101604052809291908181526020018280546120f190613cc3565b801561213e5780601f106121135761010080835404028352916020019161213e565b820191906000526020600020905b81548152906001019060200180831161212157829003601f168201915b5050505050815260200160038201805461215790613cc3565b80601f016020809104026020016040519081016040528092919081815260200182805461218390613cc3565b80156121d05780601f106121a5576101008083540402835291602001916121d0565b820191906000526020600020905b8154815290600101906020018083116121b357829003601f168201915b505050505081526020016004820180546121e990613cc3565b80601f016020809104026020016040519081016040528092919081815260200182805461221590613cc3565b80156122625780601f1061223757610100808354040283529160200191612262565b820191906000526020600020905b81548152906001019060200180831161224557829003601f168201915b5050505050815260200160058201805461227b90613cc3565b80601f01602080910402602001604051908101604052809291908181526020018280546122a790613cc3565b80156122f45780601f106122c9576101008083540402835291602001916122f4565b820191906000526020600020905b8154815290600101906020018083116122d757829003601f168201915b5050505050815260200160068201805461230d90613cc3565b80601f016020809104026020016040519081016040528092919081815260200182805461233990613cc3565b80156123865780601f1061235b57610100808354040283529160200191612386565b820191906000526020600020905b81548152906001019060200180831161236957829003601f168201915b5050505050815260200160078201805461239f90613cc3565b80601f01602080910402602001604051908101604052809291908181526020018280546123cb90613cc3565b80156124185780601f106123ed57610100808354040283529160200191612418565b820191906000526020600020905b8154815290600101906020018083116123fb57829003601f168201915b5050505050815260200160088201805480602002602001604051908101604052809291908181526020016000905b828210156124f257838290600052602060002001805461246590613cc3565b80601f016020809104026020016040519081016040528092919081815260200182805461249190613cc3565b80156124de5780601f106124b3576101008083540402835291602001916124de565b820191906000526020600020905b8154815290600101906020018083116124c157829003601f168201915b505050505081526020019060010190612446565b50505050815250509050600081610100015151905060006002886040516125199190613d31565b908152602001604051809103902060405180608001604052908160008201805461254290613cc3565b80601f016020809104026020016040519081016040528092919081815260200182805461256e90613cc3565b80156125bb5780601f10612590576101008083540402835291602001916125bb565b820191906000526020600020905b81548152906001019060200180831161259e57829003601f168201915b505050505081526020016001820180546125d490613cc3565b80601f016020809104026020016040519081016040528092919081815260200182805461260090613cc3565b801561264d5780601f106126225761010080835404028352916020019161264d565b820191906000526020600020905b81548152906001019060200180831161263057829003601f168201915b5050505050815260200160028201805480602002602001604051908101604052809291908181526020016000905b8282101561272757838290600052602060002001805461269a90613cc3565b80601f01602080910402602001604051908101604052809291908181526020018280546126c690613cc3565b80156127135780601f106126e857610100808354040283529160200191612713565b820191906000526020600020905b8154815290600101906020018083116126f657829003601f168201915b50505050508152602001906001019061267b565b5050505081526020016003820160009054906101000a900460ff1615151515815250509050600060028960405161275e9190613d31565b908152602001604051809103902060020180549050905060006002896040516127879190613d31565b90815260200160405180910390206040518060800160405290816000820180546127b090613cc3565b80601f01602080910402602001604051908101604052809291908181526020018280546127dc90613cc3565b80156128295780601f106127fe57610100808354040283529160200191612829565b820191906000526020600020905b81548152906001019060200180831161280c57829003601f168201915b5050505050815260200160018201805461284290613cc3565b80601f016020809104026020016040519081016040528092919081815260200182805461286e90613cc3565b80156128bb5780601f10612890576101008083540402835291602001916128bb565b820191906000526020600020905b81548152906001019060200180831161289e57829003601f168201915b5050505050815260200160028201805480602002602001604051908101604052809291908181526020016000905b8282101561299557838290600052602060002001805461290890613cc3565b80601f016020809104026020016040519081016040528092919081815260200182805461293490613cc3565b80156129815780601f1061295657610100808354040283529160200191612981565b820191906000526020600020905b81548152906001019060200180831161296457829003601f168201915b5050505050815260200190600101906128e9565b5050505081526020016003820160009054906101000a900460ff1615151515815250509050826060015180156129cc575080606001515b15612e1657600096505b81871015612a2757612a06836040015188815181106129f8576129f7613d48565b5b60200260200101518c612fd6565b15612a145760019550612a27565b8680612a1f90613da6565b9750506129d6565b600115158615151415612e1557600096505b83871015612ad957612a6a8561010001518881518110612a5c57612a5b613d48565b5b60200260200101518b612fd6565b15612ac6578860048c604051612a809190613d31565b90815260200160405180910390206008018881548110612aa357612aa2613d48565b5b906000526020600020019080519060200190612ac0929190613165565b50612ad9565b8680612ad190613da6565b975050612a39565b600096505b81871015612e1457612bb560028b604051612af99190613d31565b90815260200160405180910390206002018881548110612b1c57612b1b613d48565b5b906000526020600020018054612b3190613cc3565b80601f0160208091040260200160405190810160405280929190818152602001828054612b5d90613cc3565b8015612baa5780601f10612b7f57610100808354040283529160200191612baa565b820191906000526020600020905b815481529060010190602001808311612b8d57829003601f168201915b50505050508c612fd6565b15612e0157612be48760028c604051612bce9190613d31565b908152602001604051809103902060020161302f565b50600060028a604051612bf79190613d31565b90815260200160405180910390206002018054905090506000811415612d045760028a604051612c279190613d31565b90815260200160405180910390206002018c908060018154018082558091505060019003906000526020600020016000909190919091509080519060200190612c71929190613165565b5060028a604051612c829190613d31565b908152602001604051809103902060020180600181540180825580915050600190039060005260206000200160006040518060400160405280600481526020017f6861636b0000000000000000000000000000000000000000000000000000000081525090919091509080519060200190612cfe929190613165565b50612df0565b8b60028b604051612d159190613d31565b9081526020016040518091039020600201600183612d339190613def565b81548110612d4457612d43613d48565b5b906000526020600020019080519060200190612d61929190613165565b5060028a604051612d729190613d31565b908152602001604051809103902060020180600181540180825580915050600190039060005260206000200160006040518060400160405280600481526020017f6861636b0000000000000000000000000000000000000000000000000000000081525090919091509080519060200190612dee929190613165565b505b600198505050505050505050612e22565b8680612e0c90613da6565b975050612ade565b5b5b60009750505050505050505b9392505050565b6060600282604051612e3b9190613d31565b9081526020016040518091039020600201805480602002602001604051908101604052809291908181526020016000905b82821015612f18578382906000526020600020018054612e8b90613cc3565b80601f0160208091040260200160405190810160405280929190818152602001828054612eb790613cc3565b8015612f045780601f10612ed957610100808354040283529160200191612f04565b820191906000526020600020905b815481529060010190602001808311612ee757829003601f168201915b505050505081526020019060010190612e6c565b505050509050919050565b6060600382604051612f359190613d31565b90815260200160405180910390206000018054612f5190613cc3565b80601f0160208091040260200160405190810160405280929190818152602001828054612f7d90613cc3565b8015612fca5780601f10612f9f57610100808354040283529160200191612fca565b820191906000526020600020905b815481529060010190602001808311612fad57829003601f168201915b50505050509050919050565b600081604051602001612fe99190613d31565b60405160208183030381529060405280519060200120836040516020016130109190613d31565b6040516020818303038152906040528051906020012014905092915050565b6000818054905083106130455760009050613113565b60008390505b6001838054905061305c9190613def565b8110156130d457826001826130719190613e23565b8154811061308257613081613d48565b5b9060005260206000200183828154811061309f5761309e613d48565b5b906000526020600020019080546130b590613cc3565b6130c092919061328f565b5080806130cc90613da6565b91505061304b565b5081600183805490506130e79190613def565b815481106130f8576130f7613d48565b5b90600052602060002001600061310e919061331c565b600190505b92915050565b6040518061012001604052806000815260200160608152602001606081526020016060815260200160608152602001606081526020016060815260200160608152602001606081525090565b82805461317190613cc3565b90600052602060002090601f01602090048101928261319357600085556131da565b82601f106131ac57805160ff19168380011785556131da565b828001600101855582156131da579182015b828111156131d95782518255916020019190600101906131be565b5b5090506131e7919061335c565b5090565b82805482825590600052602060002090810192821561323a579160200282015b82811115613239578251829080519060200190613229929190613165565b509160200191906001019061320b565b5b5090506132479190613379565b5090565b60405180608001604052806060815260200160608152602001606081526020016000151581525090565b604051806040016040528060608152602001606081525090565b82805461329b90613cc3565b90600052602060002090601f0160209004810192826132bd576000855561330b565b82601f106132ce578054855561330b565b8280016001018555821561330b57600052602060002091601f016020900482015b8281111561330a5782548255916001019190600101906132ef565b5b509050613318919061335c565b5090565b50805461332890613cc3565b6000825580601f1061333a5750613359565b601f016020900490600052602060002090810190613358919061335c565b5b50565b5b8082111561337557600081600090555060010161335d565b5090565b5b808211156133995760008181613390919061331c565b5060010161337a565b5090565b6000604051905090565b600080fd5b600080fd5b600080fd5b600080fd5b6000601f19601f8301169050919050565b7f4e487b7100000000000000000000000000000000000000000000000000000000600052604160045260246000fd5b613404826133bb565b810181811067ffffffffffffffff82111715613423576134226133cc565b5b80604052505050565b600061343661339d565b905061344282826133fb565b919050565b600067ffffffffffffffff821115613462576134616133cc565b5b61346b826133bb565b9050602081019050919050565b82818337600083830152505050565b600061349a61349584613447565b61342c565b9050828152602081018484840111156134b6576134b56133b6565b5b6134c1848285613478565b509392505050565b600082601f8301126134de576134dd6133b1565b5b81356134ee848260208601613487565b91505092915050565b60006020828403121561350d5761350c6133a7565b5b600082013567ffffffffffffffff81111561352b5761352a6133ac565b5b613537848285016134c9565b91505092915050565b6000819050919050565b61355381613540565b82525050565b600081519050919050565b600082825260208201905092915050565b60005b83811015613593578082015181840152602081019050613578565b838111156135a2576000848401525b50505050565b60006135b382613559565b6135bd8185613564565b93506135cd818560208601613575565b6135d6816133bb565b840191505092915050565b6000610100820190506135f7600083018b61354a565b8181036020830152613609818a6135a8565b9050818103604083015261361d81896135a8565b9050818103606083015261363181886135a8565b9050818103608083015261364581876135a8565b905081810360a083015261365981866135a8565b905081810360c083015261366d81856135a8565b905081810360e083015261368181846135a8565b90509998505050505050505050565b61369981613540565b81146136a457600080fd5b50565b6000813590506136b681613690565b92915050565b600080600080600080600080610100898b0312156136dd576136dc6133a7565b5b600089013567ffffffffffffffff8111156136fb576136fa6133ac565b5b6137078b828c016134c9565b98505060206137188b828c016136a7565b975050604089013567ffffffffffffffff811115613739576137386133ac565b5b6137458b828c016134c9565b965050606089013567ffffffffffffffff811115613766576137656133ac565b5b6137728b828c016134c9565b955050608089013567ffffffffffffffff811115613793576137926133ac565b5b61379f8b828c016134c9565b94505060a089013567ffffffffffffffff8111156137c0576137bf6133ac565b5b6137cc8b828c016134c9565b93505060c089013567ffffffffffffffff8111156137ed576137ec6133ac565b5b6137f98b828c016134c9565b92505060e089013567ffffffffffffffff81111561381a576138196133ac565b5b6138268b828c016134c9565b9150509295985092959890939650565b60008115159050919050565b61384b81613836565b82525050565b60006020820190506138666000830184613842565b92915050565b6000604082019050818103600083015261388681856135a8565b9050818103602083015261389a81846135a8565b90509392505050565b600060608201905081810360008301526138bd81866135a8565b905081810360208301526138d181856135a8565b90506138e06040830184613842565b949350505050565b60006020820190506138fd600083018461354a565b92915050565b60008060006060848603121561391c5761391b6133a7565b5b600084013567ffffffffffffffff81111561393a576139396133ac565b5b613946868287016134c9565b935050602084013567ffffffffffffffff811115613967576139666133ac565b5b613973868287016134c9565b925050604084013567ffffffffffffffff811115613994576139936133ac565b5b6139a0868287016134c9565b9150509250925092565b6000602082840312156139c0576139bf6133a7565b5b60006139ce848285016136a7565b91505092915050565b600060e0820190506139ec600083018a61354a565b81810360208301526139fe81896135a8565b90508181036040830152613a1281886135a8565b90508181036060830152613a2681876135a8565b90508181036080830152613a3a81866135a8565b905081810360a0830152613a4e81856135a8565b905081810360c0830152613a6281846135a8565b905098975050505050505050565b600073ffffffffffffffffffffffffffffffffffffffff82169050919050565b6000613a9b82613a70565b9050919050565b613aab81613a90565b82525050565b6000602082019050613ac66000830184613aa2565b92915050565b60008060408385031215613ae357613ae26133a7565b5b600083013567ffffffffffffffff811115613b0157613b006133ac565b5b613b0d858286016134c9565b925050602083013567ffffffffffffffff811115613b2e57613b2d6133ac565b5b613b3a858286016134c9565b9150509250929050565b600081519050919050565b600082825260208201905092915050565b6000819050602082019050919050565b600082825260208201905092915050565b6000613b8c82613559565b613b968185613b70565b9350613ba6818560208601613575565b613baf816133bb565b840191505092915050565b6000613bc68383613b81565b905092915050565b6000602082019050919050565b6000613be682613b44565b613bf08185613b4f565b935083602082028501613c0285613b60565b8060005b85811015613c3e5784840389528151613c1f8582613bba565b9450613c2a83613bce565b925060208a01995050600181019050613c06565b50829750879550505050505092915050565b60006020820190508181036000830152613c6a8184613bdb565b905092915050565b60006020820190508181036000830152613c8c81846135a8565b905092915050565b7f4e487b7100000000000000000000000000000000000000000000000000000000600052602260045260246000fd5b60006002820490506001821680613cdb57607f821691505b60208210811415613cef57613cee613c94565b5b50919050565b600081905092915050565b6000613d0b82613559565b613d158185613cf5565b9350613d25818560208601613575565b80840191505092915050565b6000613d3d8284613d00565b915081905092915050565b7f4e487b7100000000000000000000000000000000000000000000000000000000600052603260045260246000fd5b7f4e487b7100000000000000000000000000000000000000000000000000000000600052601160045260246000fd5b6000613db182613540565b91507fffffffffffffffffffffffffffffffffffffffffffffffffffffffffffffffff821415613de457613de3613d77565b5b600182019050919050565b6000613dfa82613540565b9150613e0583613540565b925082821015613e1857613e17613d77565b5b828203905092915050565b6000613e2e82613540565b9150613e3983613540565b9250827fffffffffffffffffffffffffffffffffffffffffffffffffffffffffffffffff03821115613e6e57613e6d613d77565b5b82820190509291505056fea26469706673582212207a442f6eebe0234be327d8deb47b9aa2e340db4976f0d8e33df1612a922a479564736f6c634300080c0033",
  "immutableReferences": {},
  "source": "pragma solidity ^0.8.12;\r\npragma experimental ABIEncoderV2;\r\n\r\ncontract MyContract {\r\n  address public owner;\r\n//   create a customer object\r\nuint public data;\r\n  function date() public view returns (uint) {\r\n    return data;\r\n  }\r\n\r\n  function setData(uint _data) external {\r\n    data = _data;\r\n \r\n  }\r\n\r\n    struct Customer {\r\n        string name;\r\n        string phone;\r\n        string[] code;\r\n        bool isValue;\r\n    }\r\n    // create a customer array\r\n    mapping(string => Customer) public CustomerArr;\r\n\r\n    //create retailer object\r\n    struct Retailer {\r\n        string name;\r\n        string location;\r\n    }\r\n    //create retailer array\r\n    mapping(string => Retailer) public retailerArr;\r\n\r\n    //create QR code object\r\n    struct QRcode {\r\n        uint status;\r\n        string brand;\r\n        string model;\r\n        string description;\r\n        string manufactuerName;\r\n        string manufactuerLocation;\r\n        string manufactuerTimestamp;\r\n        string retailer;\r\n        string[] customers;\r\n    }\r\n    //create QR code array\r\n    mapping(string => QRcode) public qrArr;\r\n\r\n    //function to create a customer\r\n    function createCustomer(string memory _hashedEmail , string memory _name, string memory _phone) public payable returns (bool) {\r\n        if (CustomerArr[_hashedEmail].isValue) {\r\n            return false;\r\n        }\r\n        Customer memory new_customer;\r\n        new_customer.name = _name;\r\n        new_customer.phone = _phone;\r\n        new_customer.isValue =true;\r\n        CustomerArr[_hashedEmail] = new_customer;\r\n        return true;\r\n\r\n    }\r\n    \r\n    // function to create a retailer\r\n    function createRetailer(string memory _hashedEmail , string memory _name, string memory _location) public payable returns (bool) {\r\n        \r\n        Retailer memory new_retailer;\r\n        new_retailer.name = _name;\r\n        new_retailer.location = _location;\r\n        retailerArr[_hashedEmail] = new_retailer;\r\n        return true;\r\n\r\n    }\r\n    function getRetailer(string memory _hashedEmail) public view returns (string memory) {\r\n        return retailerArr[_hashedEmail].name;\r\n    }\r\n\r\n    //function to create a QR code\r\n    function createCode(string memory _code, uint  _status , string memory _brand, string memory _model, string memory _description, string memory _manufactuerName, string memory _manufactuerLocation, string memory _manufactuerTimestamp) public payable returns (bool) {\r\n        QRcode memory new_qr;\r\n        new_qr.status = _status;\r\n        new_qr.brand = _brand;\r\n        new_qr.model = _model;\r\n        new_qr.description = _description;\r\n        new_qr.manufactuerName = _manufactuerName;\r\n        new_qr.manufactuerLocation = _manufactuerLocation;\r\n        new_qr.manufactuerTimestamp = _manufactuerTimestamp;\r\n        qrArr[_code] = new_qr;\r\n        return true;\r\n    }\r\n\r\n    // function to add retailer to QR code\r\n    function addRetailerToCode(string memory _code, string memory _retailerHashedEmail) public payable returns (bool) {\r\n        \r\n        qrArr[_code].retailer = _retailerHashedEmail;\r\n        return true;\r\n    }\r\n\r\n    //function to get QR code details of not a owner\r\n    function getNotOwnedCodeDetails(string memory _code) public view returns ( uint,string memory, string memory, string memory, string memory, string memory, string memory) {\r\n        QRcode memory qr = qrArr[_code];\r\n        return (qr.status, qr.brand, qr.model, qr.description, qr.manufactuerName, qr.manufactuerLocation, qr.manufactuerTimestamp);\r\n    }\r\n\r\n    // function to QR code details of owner\r\n    function getOwnedCodeDetails(string memory _code) public view returns ( string memory, string memory) {\r\n        QRcode memory qr = qrArr[_code];\r\n        return (retailerArr[qr.retailer].name, retailerArr[qr.retailer].location);\r\n    }\r\n\r\n    //function to get Qr codes of customer \r\n    function getCodes(string memory _customer) public view returns(string[] memory) {\r\n        return CustomerArr[_customer].code;\r\n    }\r\n\r\n    // Function to report stolen\r\n    function reportStolen(string memory _code, string memory _customer) public payable returns (bool) {\r\n        uint i;\r\n        // Checking if the customer exists\r\n        if (CustomerArr[_customer].isValue) {\r\n            // Checking if the customer owns the product\r\n            for (i = 0; i < CustomerArr[_customer].code.length; i++) {\r\n                if (compareStrings(CustomerArr[_customer].code[i], _code)) {\r\n                    qrArr[_code].status = 2;        // Changing the status to stolen\r\n                }\r\n                return true;\r\n            }\r\n        }\r\n        return false;\r\n    }\r\n\r\n    function changeOwner(string memory _code, string memory _oldCustomer, string memory _newCustomer) public payable returns (bool) {\r\n        uint i;\r\n        bool flag = false;\r\n         //Creating objects for code,oldCustomer,newCustomer\r\n        QRcode memory product = qrArr[_code];\r\n        uint len_product_customer = product.customers.length;\r\n        Customer memory oldCustomer = CustomerArr[_oldCustomer];\r\n        uint len_oldCustomer_code = CustomerArr[_oldCustomer].code.length;\r\n        Customer memory newCustomer = CustomerArr[_newCustomer];\r\n\r\n        //Check if oldCustomer and newCustomer have an account\r\n        if (oldCustomer.isValue && newCustomer.isValue) {\r\n            //Check if oldCustomer is owner\r\n            for (i = 0; i < len_oldCustomer_code; i++) {\r\n                if (compareStrings(oldCustomer.code[i], _code)) {\r\n                    flag = true;\r\n                    break;\r\n                }\r\n            }\r\n\r\n            if (flag == true) {\r\n                //Swaping oldCustomer with newCustomer in product\r\n                for (i = 0; i < len_product_customer; i++) {\r\n                    if (compareStrings(product.customers[i], _oldCustomer)) {\r\n                        qrArr[_code].customers[i] = _newCustomer;\r\n                        break;\r\n                    }\r\n                }\r\n\r\n                // Removing product from oldCustomer\r\n                for (i = 0; i < len_oldCustomer_code; i++) {\r\n                    if (compareStrings(CustomerArr[_oldCustomer].code[i], _code)) {\r\n                        remove(i, CustomerArr[_oldCustomer].code);\r\n                        // Adding product to newCustomer\r\n                        uint len = CustomerArr[_newCustomer].code.length;\r\n                        if(len == 0){\r\n                            CustomerArr[_newCustomer].code.push(_code);\r\n                            CustomerArr[_newCustomer].code.push(\"hack\");\r\n                        } else {\r\n                            CustomerArr[_newCustomer].code[len-1] = _code;\r\n                            CustomerArr[_newCustomer].code.push(\"hack\");\r\n                        }\r\n                        return true;\r\n                    }\r\n                }\r\n            }\r\n        }\r\n        return false;\r\n    }\r\n\r\n\r\n    function initialOwner(string memory _code, string memory _retailer, string memory _customer) public payable returns(bool) {\r\n            uint i;\r\n            if (compareStrings(qrArr[_code].retailer, _retailer)) {       // Check if retailer owns the prodct\r\n                if (CustomerArr[_customer].isValue) {                       // Check if Customer has an account\r\n                    qrArr[_code].customers.push(_customer);               // Adding customer in code\r\n                    qrArr[_code].status = 1;\r\n                    uint len = CustomerArr[_customer].code.length;\r\n                    if(len == 0) {\r\n                        CustomerArr[_customer].code.push(_code);\r\n                        CustomerArr[_customer].code.push(\"hack\");\r\n                    } else {\r\n                    CustomerArr[_customer].code[len-1] = _code;\r\n                    CustomerArr[_customer].code.push(\"hack\");\r\n                    }\r\n                    return true;\r\n                }\r\n            }\r\n            return false;\r\n        }\r\n\r\n\r\n    // Cannot directly compare strings in Solidity\r\n    // This function hashes the 2 strings and then compares the 2 hashes\r\n    function compareStrings(string memory  a, string memory  b) internal returns (bool) {\r\n    \treturn keccak256(abi.encodePacked(a)) == keccak256(abi.encodePacked(b));\r\n    }\r\n\r\n    // Function to delete an element from an array\r\n    function remove(uint index, string[] storage array) internal returns(bool) {\r\n        if (index >= array.length)\r\n            return false;\r\n\r\n        for (uint i = index; i < array.length-1; i++) {\r\n            array[i] = array[i+1];\r\n        }\r\n        delete array[array.length-1];\r\n        // array.length-=1;\r\n        return true;\r\n    }\r\n\r\n    // Function to convert string to bytes32\r\n    function stringToBytes32(string memory source) internal returns (bytes32 result) {\r\n        bytes memory tempEmptyStringTest = bytes(source);\r\n        if (tempEmptyStringTest.length == 0) {\r\n            return 0x0;\r\n        }\r\n        assembly {\r\n            result := mload(add(source, 32))\r\n        }\r\n    }\r\n\r\n\r\n    \r\n\r\n\r\n\r\n}",
  "sourcePath": "D:\\fake_product\\contracts\\block.sol",
  "compiler": {
    "name": "solc",
    "version": "0.8.12+commit.f00d7308.Emscripten.clang"
  },
  "schemaVersion": "3.4.6",
  "updatedAt": "2022-04-11T16:08:15.627Z",
  "devdoc": {
    "kind": "dev",
    "methods": {},
    "version": 1
  },
  "userdoc": {
    "kind": "user",
    "methods": {},
    "version": 1
  }
}