{
  "contractName": "MyContract",
  "abi": [
    {
      "inputs": [
        {
          "internalType": "string",
          "name": "",
          "type": "string"
        }
      ],
      "name": "CustomerArr",
      "outputs": [
        {
          "internalType": "string",
          "name": "name",
          "type": "string"
        },
        {
          "internalType": "string",
          "name": "phone",
          "type": "string"
        },
        {
          "internalType": "bool",
          "name": "isValue",
          "type": "bool"
        }
      ],
      "stateMutability": "view",
      "type": "function"
    },
    {
      "inputs": [],
      "name": "data",
      "outputs": [
        {
          "internalType": "uint256",
          "name": "",
          "type": "uint256"
        }
      ],
      "stateMutability": "view",
      "type": "function"
    },
    {
      "inputs": [],
      "name": "owner",
      "outputs": [
        {
          "internalType": "address",
          "name": "",
          "type": "address"
        }
      ],
      "stateMutability": "view",
      "type": "function"
    },
    {
      "inputs": [
        {
          "internalType": "string",
          "name": "",
          "type": "string"
        }
      ],
      "name": "qrArr",
      "outputs": [
        {
          "internalType": "uint256",
          "name": "status",
          "type": "uint256"
        },
        {
          "internalType": "string",
          "name": "brand",
          "type": "string"
        },
        {
          "internalType": "string",
          "name": "model",
          "type": "string"
        },
        {
          "internalType": "string",
          "name": "description",
          "type": "string"
        },
        {
          "internalType": "string",
          "name": "manufactuerName",
          "type": "string"
        },
        {
          "internalType": "string",
          "name": "manufactuerLocation",
          "type": "string"
        },
        {
          "internalType": "string",
          "name": "manufactuerTimestamp",
          "type": "string"
        },
        {
          "internalType": "string",
          "name": "retailer",
          "type": "string"
        }
      ],
      "stateMutability": "view",
      "type": "function"
    },
    {
      "inputs": [
        {
          "internalType": "string",
          "name": "",
          "type": "string"
        }
      ],
      "name": "retailerArr",
      "outputs": [
        {
          "internalType": "string",
          "name": "name",
          "type": "string"
        },
        {
          "internalType": "string",
          "name": "location",
          "type": "string"
        }
      ],
      "stateMutability": "view",
      "type": "function"
    },
    {
      "inputs": [],
      "name": "date",
      "outputs": [
        {
          "internalType": "uint256",
          "name": "",
          "type": "uint256"
        }
      ],
      "stateMutability": "view",
      "type": "function"
    },
    {
      "inputs": [
        {
          "internalType": "uint256",
          "name": "_data",
          "type": "uint256"
        }
      ],
      "name": "setData",
      "outputs": [],
      "stateMutability": "nonpayable",
      "type": "function"
    },
    {
      "inputs": [
        {
          "internalType": "string",
          "name": "_hashedEmail",
          "type": "string"
        },
        {
          "internalType": "string",
          "name": "_name",
          "type": "string"
        },
        {
          "internalType": "string",
          "name": "_phone",
          "type": "string"
        }
      ],
      "name": "createCustomer",
      "outputs": [
        {
          "internalType": "bool",
          "name": "",
          "type": "bool"
        }
      ],
      "stateMutability": "payable",
      "type": "function"
    },
    {
      "inputs": [
        {
          "internalType": "string",
          "name": "_hashedEmail",
          "type": "string"
        },
        {
          "internalType": "string",
          "name": "_name",
          "type": "string"
        },
        {
          "internalType": "string",
          "name": "_location",
          "type": "string"
        }
      ],
      "name": "createRetailer",
      "outputs": [
        {
          "internalType": "bool",
          "name": "",
          "type": "bool"
        }
      ],
      "stateMutability": "payable",
      "type": "function"
    },
    {
      "inputs": [
        {
          "internalType": "string",
          "name": "_code",
          "type": "string"
        },
        {
          "internalType": "uint256",
          "name": "_status",
          "type": "uint256"
        },
        {
          "internalType": "string",
          "name": "_brand",
          "type": "string"
        },
        {
          "internalType": "string",
          "name": "_model",
          "type": "string"
        },
        {
          "internalType": "string",
          "name": "_description",
          "type": "string"
        },
        {
          "internalType": "string",
          "name": "_manufactuerName",
          "type": "string"
        },
        {
          "internalType": "string",
          "name": "_manufactuerLocation",
          "type": "string"
        },
        {
          "internalType": "string",
          "name": "_manufactuerTimestamp",
          "type": "string"
        }
      ],
      "name": "createCode",
      "outputs": [
        {
          "internalType": "bool",
          "name": "",
          "type": "bool"
        }
      ],
      "stateMutability": "payable",
      "type": "function"
    },
    {
      "inputs": [
        {
          "internalType": "string",
          "name": "_code",
          "type": "string"
        },
        {
          "internalType": "string",
          "name": "_retailerHashedEmail",
          "type": "string"
        }
      ],
      "name": "addRetailerToCode",
      "outputs": [
        {
          "internalType": "bool",
          "name": "",
          "type": "bool"
        }
      ],
      "stateMutability": "payable",
      "type": "function"
    },
    {
      "inputs": [
        {
          "internalType": "string",
          "name": "_code",
          "type": "string"
        }
      ],
      "name": "getNotOwnedCodeDetails",
      "outputs": [
        {
          "internalType": "uint256",
          "name": "",
          "type": "uint256"
        },
        {
          "internalType": "string",
          "name": "",
          "type": "string"
        },
        {
          "internalType": "string",
          "name": "",
          "type": "string"
        },
        {
          "internalType": "string",
          "name": "",
          "type": "string"
        },
        {
          "internalType": "string",
          "name": "",
          "type": "string"
        },
        {
          "internalType": "string",
          "name": "",
          "type": "string"
        },
        {
          "internalType": "string",
          "name": "",
          "type": "string"
        }
      ],
      "stateMutability": "view",
      "type": "function"
    },
    {
      "inputs": [
        {
          "internalType": "string",
          "name": "_code",
          "type": "string"
        }
      ],
      "name": "getOwnedCodeDetails",
      "outputs": [
        {
          "internalType": "string",
          "name": "",
          "type": "string"
        },
        {
          "internalType": "string",
          "name": "",
          "type": "string"
        }
      ],
      "stateMutability": "view",
      "type": "function"
    },
    {
      "inputs": [
        {
          "internalType": "string",
          "name": "_customer",
          "type": "string"
        }
      ],
      "name": "getCodes",
      "outputs": [
        {
          "internalType": "string[]",
          "name": "",
          "type": "string[]"
        }
      ],
      "stateMutability": "view",
      "type": "function"
    },
    {
      "inputs": [
        {
          "internalType": "string",
          "name": "_code",
          "type": "string"
        },
        {
          "internalType": "string",
          "name": "_customer",
          "type": "string"
        }
      ],
      "name": "reportStolen",
      "outputs": [
        {
          "internalType": "bool",
          "name": "",
          "type": "bool"
        }
      ],
      "stateMutability": "payable",
      "type": "function"
    },
    {
      "inputs": [
        {
          "internalType": "string",
          "name": "_code",
          "type": "string"
        },
        {
          "internalType": "string",
          "name": "_oldCustomer",
          "type": "string"
        },
        {
          "internalType": "string",
          "name": "_newCustomer",
          "type": "string"
        }
      ],
      "name": "changeOwner",
      "outputs": [
        {
          "internalType": "bool",
          "name": "",
          "type": "bool"
        }
      ],
      "stateMutability": "payable",
      "type": "function"
    },
    {
      "inputs": [
        {
          "internalType": "string",
          "name": "_code",
          "type": "string"
        },
        {
          "internalType": "string",
          "name": "_retailer",
          "type": "string"
        },
        {
          "internalType": "string",
          "name": "_customer",
          "type": "string"
        }
      ],
      "name": "initialOwner",
      "outputs": [
        {
          "internalType": "bool",
          "name": "",
          "type": "bool"
        }
      ],
      "stateMutability": "payable",
      "type": "function"
    }
  ],
  "bytecode": "0x608060405234801561001057600080fd5b50613d92806100206000396000f3fe6080604052600436106100fe5760003560e01c80637ab9c57c11610095578063b5bd438b11610064578063b5bd438b14610371578063c19dd0d3146103a1578063c5e69717146103df578063ceff2efc1461040f578063ff9010401461043f576100fe565b80637ab9c57c146102a35780638da5cb5b146102e657806391904ff814610311578063b3e19d1a14610341576100fe565b8063323046b1116100d1578063323046b1146101f457806355b059e81461021f5780635b4b73a91461024f57806373d4a13a14610278576100fe565b806313d1b92114610103578063274ad23a14610147578063285e9e161461017757806331ea7b64146101b5575b600080fd5b34801561010f57600080fd5b5061012a600480360381019061012591906133fc565b61047c565b60405161013e9897969594939291906134e6565b60405180910390f35b610161600480360381019061015c91906135c1565b610892565b60405161016e9190613756565b60405180910390f35b34801561018357600080fd5b5061019e600480360381019061019991906133fc565b610a02565b6040516101ac929190613771565b60405180910390f35b3480156101c157600080fd5b506101dc60048036038101906101d791906133fc565b611080565b6040516101eb939291906137a8565b60405180910390f35b34801561020057600080fd5b506102096111dd565b60405161021691906137ed565b60405180910390f35b61023960048036038101906102349190613808565b6111e7565b6040516102469190613756565b60405180910390f35b34801561025b57600080fd5b50610276600480360381019061027191906138af565b6112f7565b005b34801561028457600080fd5b5061028d611301565b60405161029a91906137ed565b60405180910390f35b3480156102af57600080fd5b506102ca60048036038101906102c591906133fc565b611307565b6040516102dd97969594939291906138dc565b60405180910390f35b3480156102f257600080fd5b506102fb61185e565b60405161030891906139b6565b60405180910390f35b61032b600480360381019061032691906139d1565b611882565b6040516103389190613756565b60405180910390f35b61035b600480360381019061035691906139d1565b6119fc565b6040516103689190613756565b60405180910390f35b61038b60048036038101906103869190613808565b611a3e565b6040516103989190613756565b60405180910390f35b3480156103ad57600080fd5b506103c860048036038101906103c391906133fc565b611ac2565b6040516103d6929190613771565b60405180910390f35b6103f960048036038101906103f49190613808565b611c0c565b6040516104069190613756565b60405180910390f35b61042960048036038101906104249190613808565b611fa1565b6040516104369190613756565b60405180910390f35b34801561044b57600080fd5b50610466600480360381019061046191906133fc565b612de1565b6040516104739190613b55565b60405180910390f35b6004818051602081018201805184825260208301602085012081835280955050505050506000915090508060000154908060010180546104bb90613ba6565b80601f01602080910402602001604051908101604052809291908181526020018280546104e790613ba6565b80156105345780601f1061050957610100808354040283529160200191610534565b820191906000526020600020905b81548152906001019060200180831161051757829003601f168201915b50505050509080600201805461054990613ba6565b80601f016020809104026020016040519081016040528092919081815260200182805461057590613ba6565b80156105c25780601f10610597576101008083540402835291602001916105c2565b820191906000526020600020905b8154815290600101906020018083116105a557829003601f168201915b5050505050908060030180546105d790613ba6565b80601f016020809104026020016040519081016040528092919081815260200182805461060390613ba6565b80156106505780601f1061062557610100808354040283529160200191610650565b820191906000526020600020905b81548152906001019060200180831161063357829003601f168201915b50505050509080600401805461066590613ba6565b80601f016020809104026020016040519081016040528092919081815260200182805461069190613ba6565b80156106de5780601f106106b3576101008083540402835291602001916106de565b820191906000526020600020905b8154815290600101906020018083116106c157829003601f168201915b5050505050908060050180546106f390613ba6565b80601f016020809104026020016040519081016040528092919081815260200182805461071f90613ba6565b801561076c5780601f106107415761010080835404028352916020019161076c565b820191906000526020600020905b81548152906001019060200180831161074f57829003601f168201915b50505050509080600601805461078190613ba6565b80601f01602080910402602001604051908101604052809291908181526020018280546107ad90613ba6565b80156107fa5780601f106107cf576101008083540402835291602001916107fa565b820191906000526020600020905b8154815290600101906020018083116107dd57829003601f168201915b50505050509080600701805461080f90613ba6565b80601f016020809104026020016040519081016040528092919081815260200182805461083b90613ba6565b80156108885780601f1061085d57610100808354040283529160200191610888565b820191906000526020600020905b81548152906001019060200180831161086b57829003601f168201915b5050505050905088565b600061089c61301e565b88816000018181525050878160200181905250868160400181905250858160600181905250848160800181905250838160a00181905250828160c001819052508060048b6040516108ed9190613c14565b908152602001604051809103902060008201518160000155602082015181600101908051906020019061092192919061306a565b50604082015181600201908051906020019061093e92919061306a565b50606082015181600301908051906020019061095b92919061306a565b50608082015181600401908051906020019061097892919061306a565b5060a082015181600501908051906020019061099592919061306a565b5060c08201518160060190805190602001906109b292919061306a565b5060e08201518160070190805190602001906109cf92919061306a565b506101008201518160080190805190602001906109ed9291906130f0565b50905050600191505098975050505050505050565b6060806000600484604051610a179190613c14565b90815260200160405180910390206040518061012001604052908160008201548152602001600182018054610a4b90613ba6565b80601f0160208091040260200160405190810160405280929190818152602001828054610a7790613ba6565b8015610ac45780601f10610a9957610100808354040283529160200191610ac4565b820191906000526020600020905b815481529060010190602001808311610aa757829003601f168201915b50505050508152602001600282018054610add90613ba6565b80601f0160208091040260200160405190810160405280929190818152602001828054610b0990613ba6565b8015610b565780601f10610b2b57610100808354040283529160200191610b56565b820191906000526020600020905b815481529060010190602001808311610b3957829003601f168201915b50505050508152602001600382018054610b6f90613ba6565b80601f0160208091040260200160405190810160405280929190818152602001828054610b9b90613ba6565b8015610be85780601f10610bbd57610100808354040283529160200191610be8565b820191906000526020600020905b815481529060010190602001808311610bcb57829003601f168201915b50505050508152602001600482018054610c0190613ba6565b80601f0160208091040260200160405190810160405280929190818152602001828054610c2d90613ba6565b8015610c7a5780601f10610c4f57610100808354040283529160200191610c7a565b820191906000526020600020905b815481529060010190602001808311610c5d57829003601f168201915b50505050508152602001600582018054610c9390613ba6565b80601f0160208091040260200160405190810160405280929190818152602001828054610cbf90613ba6565b8015610d0c5780601f10610ce157610100808354040283529160200191610d0c565b820191906000526020600020905b815481529060010190602001808311610cef57829003601f168201915b50505050508152602001600682018054610d2590613ba6565b80601f0160208091040260200160405190810160405280929190818152602001828054610d5190613ba6565b8015610d9e5780601f10610d7357610100808354040283529160200191610d9e565b820191906000526020600020905b815481529060010190602001808311610d8157829003601f168201915b50505050508152602001600782018054610db790613ba6565b80601f0160208091040260200160405190810160405280929190818152602001828054610de390613ba6565b8015610e305780601f10610e0557610100808354040283529160200191610e30565b820191906000526020600020905b815481529060010190602001808311610e1357829003601f168201915b5050505050815260200160088201805480602002602001604051908101604052809291908181526020016000905b82821015610f0a578382906000526020600020018054610e7d90613ba6565b80601f0160208091040260200160405190810160405280929190818152602001828054610ea990613ba6565b8015610ef65780601f10610ecb57610100808354040283529160200191610ef6565b820191906000526020600020905b815481529060010190602001808311610ed957829003601f168201915b505050505081526020019060010190610e5e565b5050505081525050905060038160e00151604051610f289190613c14565b908152602001604051809103902060000160038260e00151604051610f4d9190613c14565b9081526020016040518091039020600101818054610f6a90613ba6565b80601f0160208091040260200160405190810160405280929190818152602001828054610f9690613ba6565b8015610fe35780601f10610fb857610100808354040283529160200191610fe3565b820191906000526020600020905b815481529060010190602001808311610fc657829003601f168201915b50505050509150808054610ff690613ba6565b80601f016020809104026020016040519081016040528092919081815260200182805461102290613ba6565b801561106f5780601f106110445761010080835404028352916020019161106f565b820191906000526020600020905b81548152906001019060200180831161105257829003601f168201915b505050505090509250925050915091565b6002818051602081018201805184825260208301602085012081835280955050505050506000915090508060000180546110b990613ba6565b80601f01602080910402602001604051908101604052809291908181526020018280546110e590613ba6565b80156111325780601f1061110757610100808354040283529160200191611132565b820191906000526020600020905b81548152906001019060200180831161111557829003601f168201915b50505050509080600101805461114790613ba6565b80601f016020809104026020016040519081016040528092919081815260200182805461117390613ba6565b80156111c05780601f10611195576101008083540402835291602001916111c0565b820191906000526020600020905b8154815290600101906020018083116111a357829003601f168201915b5050505050908060030160009054906101000a900460ff16905083565b6000600154905090565b60006002846040516111f99190613c14565b908152602001604051809103902060030160009054906101000a900460ff161561122657600090506112f0565b61122e613150565b8381600001819052508281602001819052506001816060019015159081151581525050806002866040516112629190613c14565b9081526020016040518091039020600082015181600001908051906020019061128c92919061306a565b5060208201518160010190805190602001906112a992919061306a565b5060408201518160020190805190602001906112c69291906130f0565b5060608201518160030160006101000a81548160ff02191690831515021790555090505060019150505b9392505050565b8060018190555050565b60015481565b600060608060608060608060006004896040516113249190613c14565b9081526020016040518091039020604051806101200160405290816000820154815260200160018201805461135890613ba6565b80601f016020809104026020016040519081016040528092919081815260200182805461138490613ba6565b80156113d15780601f106113a6576101008083540402835291602001916113d1565b820191906000526020600020905b8154815290600101906020018083116113b457829003601f168201915b505050505081526020016002820180546113ea90613ba6565b80601f016020809104026020016040519081016040528092919081815260200182805461141690613ba6565b80156114635780601f1061143857610100808354040283529160200191611463565b820191906000526020600020905b81548152906001019060200180831161144657829003601f168201915b5050505050815260200160038201805461147c90613ba6565b80601f01602080910402602001604051908101604052809291908181526020018280546114a890613ba6565b80156114f55780601f106114ca576101008083540402835291602001916114f5565b820191906000526020600020905b8154815290600101906020018083116114d857829003601f168201915b5050505050815260200160048201805461150e90613ba6565b80601f016020809104026020016040519081016040528092919081815260200182805461153a90613ba6565b80156115875780601f1061155c57610100808354040283529160200191611587565b820191906000526020600020905b81548152906001019060200180831161156a57829003601f168201915b505050505081526020016005820180546115a090613ba6565b80601f01602080910402602001604051908101604052809291908181526020018280546115cc90613ba6565b80156116195780601f106115ee57610100808354040283529160200191611619565b820191906000526020600020905b8154815290600101906020018083116115fc57829003601f168201915b5050505050815260200160068201805461163290613ba6565b80601f016020809104026020016040519081016040528092919081815260200182805461165e90613ba6565b80156116ab5780601f10611680576101008083540402835291602001916116ab565b820191906000526020600020905b81548152906001019060200180831161168e57829003601f168201915b505050505081526020016007820180546116c490613ba6565b80601f01602080910402602001604051908101604052809291908181526020018280546116f090613ba6565b801561173d5780601f106117125761010080835404028352916020019161173d565b820191906000526020600020905b81548152906001019060200180831161172057829003601f168201915b5050505050815260200160088201805480602002602001604051908101604052809291908181526020016000905b8282101561181757838290600052602060002001805461178a90613ba6565b80601f01602080910402602001604051908101604052809291908181526020018280546117b690613ba6565b80156118035780601f106117d857610100808354040283529160200191611803565b820191906000526020600020905b8154815290600101906020018083116117e657829003601f168201915b50505050508152602001906001019061176b565b50505050815250509050806000015181602001518260400151836060015184608001518560a001518660c00151975097509750975097509750975050919395979092949650565b60008054906101000a900473ffffffffffffffffffffffffffffffffffffffff1681565b6000806002836040516118959190613c14565b908152602001604051809103902060030160009054906101000a900460ff16156119f057600090506002836040516118cd9190613c14565b9081526020016040518091039020600201805490508110156119ef576119b86002846040516118fc9190613c14565b9081526020016040518091039020600201828154811061191f5761191e613c2b565b5b90600052602060002001805461193490613ba6565b80601f016020809104026020016040519081016040528092919081815260200182805461196090613ba6565b80156119ad5780601f10611982576101008083540402835291602001916119ad565b820191906000526020600020905b81548152906001019060200180831161199057829003601f168201915b505050505085612edb565b156119e55760026004856040516119cf9190613c14565b9081526020016040518091039020600001819055505b60019150506119f6565b5b60009150505b92915050565b600081600484604051611a0f9190613c14565b90815260200160405180910390206007019080519060200190611a3392919061306a565b506001905092915050565b6000611a4861317a565b83816000018190525082816020018190525080600386604051611a6b9190613c14565b90815260200160405180910390206000820151816000019080519060200190611a9592919061306a565b506020820151816001019080519060200190611ab292919061306a565b5090505060019150509392505050565b600381805160208101820180518482526020830160208501208183528095505050505050600091509050806000018054611afb90613ba6565b80601f0160208091040260200160405190810160405280929190818152602001828054611b2790613ba6565b8015611b745780601f10611b4957610100808354040283529160200191611b74565b820191906000526020600020905b815481529060010190602001808311611b5757829003601f168201915b505050505090806001018054611b8990613ba6565b80601f0160208091040260200160405190810160405280929190818152602001828054611bb590613ba6565b8015611c025780601f10611bd757610100808354040283529160200191611c02565b820191906000526020600020905b815481529060010190602001808311611be557829003601f168201915b5050505050905082565b600080611cc2600486604051611c229190613c14565b90815260200160405180910390206007018054611c3e90613ba6565b80601f0160208091040260200160405190810160405280929190818152602001828054611c6a90613ba6565b8015611cb75780601f10611c8c57610100808354040283529160200191611cb7565b820191906000526020600020905b815481529060010190602001808311611c9a57829003601f168201915b505050505085612edb565b15611f9457600283604051611cd79190613c14565b908152602001604051809103902060030160009054906101000a900460ff1615611f9357600485604051611d0b9190613c14565b908152602001604051809103902060080183908060018154018082558091505060019003906000526020600020016000909190919091509080519060200190611d5592919061306a565b506001600486604051611d689190613c14565b9081526020016040518091039020600001819055506000600284604051611d8f9190613c14565b90815260200160405180910390206002018054905090506000811415611e9c57600284604051611dbf9190613c14565b908152602001604051809103902060020186908060018154018082558091505060019003906000526020600020016000909190919091509080519060200190611e0992919061306a565b50600284604051611e1a9190613c14565b908152602001604051809103902060020180600181540180825580915050600190039060005260206000200160006040518060400160405280600481526020017f6861636b0000000000000000000000000000000000000000000000000000000081525090919091509080519060200190611e9692919061306a565b50611f88565b85600285604051611ead9190613c14565b9081526020016040518091039020600201600183611ecb9190613cd2565b81548110611edc57611edb613c2b565b5b906000526020600020019080519060200190611ef992919061306a565b50600284604051611f0a9190613c14565b908152602001604051809103902060020180600181540180825580915050600190039060005260206000200160006040518060400160405280600481526020017f6861636b0000000000000000000000000000000000000000000000000000000081525090919091509080519060200190611f8692919061306a565b505b600192505050611f9a565b5b60009150505b9392505050565b600080600080600487604051611fb79190613c14565b90815260200160405180910390206040518061012001604052908160008201548152602001600182018054611feb90613ba6565b80601f016020809104026020016040519081016040528092919081815260200182805461201790613ba6565b80156120645780601f1061203957610100808354040283529160200191612064565b820191906000526020600020905b81548152906001019060200180831161204757829003601f168201915b5050505050815260200160028201805461207d90613ba6565b80601f01602080910402602001604051908101604052809291908181526020018280546120a990613ba6565b80156120f65780601f106120cb576101008083540402835291602001916120f6565b820191906000526020600020905b8154815290600101906020018083116120d957829003601f168201915b5050505050815260200160038201805461210f90613ba6565b80601f016020809104026020016040519081016040528092919081815260200182805461213b90613ba6565b80156121885780601f1061215d57610100808354040283529160200191612188565b820191906000526020600020905b81548152906001019060200180831161216b57829003601f168201915b505050505081526020016004820180546121a190613ba6565b80601f01602080910402602001604051908101604052809291908181526020018280546121cd90613ba6565b801561221a5780601f106121ef5761010080835404028352916020019161221a565b820191906000526020600020905b8154815290600101906020018083116121fd57829003601f168201915b5050505050815260200160058201805461223390613ba6565b80601f016020809104026020016040519081016040528092919081815260200182805461225f90613ba6565b80156122ac5780601f10612281576101008083540402835291602001916122ac565b820191906000526020600020905b81548152906001019060200180831161228f57829003601f168201915b505050505081526020016006820180546122c590613ba6565b80601f01602080910402602001604051908101604052809291908181526020018280546122f190613ba6565b801561233e5780601f106123135761010080835404028352916020019161233e565b820191906000526020600020905b81548152906001019060200180831161232157829003601f168201915b5050505050815260200160078201805461235790613ba6565b80601f016020809104026020016040519081016040528092919081815260200182805461238390613ba6565b80156123d05780601f106123a5576101008083540402835291602001916123d0565b820191906000526020600020905b8154815290600101906020018083116123b357829003601f168201915b5050505050815260200160088201805480602002602001604051908101604052809291908181526020016000905b828210156124aa57838290600052602060002001805461241d90613ba6565b80601f016020809104026020016040519081016040528092919081815260200182805461244990613ba6565b80156124965780601f1061246b57610100808354040283529160200191612496565b820191906000526020600020905b81548152906001019060200180831161247957829003601f168201915b5050505050815260200190600101906123fe565b50505050815250509050600081610100015151905060006002886040516124d19190613c14565b90815260200160405180910390206040518060800160405290816000820180546124fa90613ba6565b80601f016020809104026020016040519081016040528092919081815260200182805461252690613ba6565b80156125735780601f1061254857610100808354040283529160200191612573565b820191906000526020600020905b81548152906001019060200180831161255657829003601f168201915b5050505050815260200160018201805461258c90613ba6565b80601f01602080910402602001604051908101604052809291908181526020018280546125b890613ba6565b80156126055780601f106125da57610100808354040283529160200191612605565b820191906000526020600020905b8154815290600101906020018083116125e857829003601f168201915b5050505050815260200160028201805480602002602001604051908101604052809291908181526020016000905b828210156126df57838290600052602060002001805461265290613ba6565b80601f016020809104026020016040519081016040528092919081815260200182805461267e90613ba6565b80156126cb5780601f106126a0576101008083540402835291602001916126cb565b820191906000526020600020905b8154815290600101906020018083116126ae57829003601f168201915b505050505081526020019060010190612633565b5050505081526020016003820160009054906101000a900460ff161515151581525050905060006002896040516127169190613c14565b9081526020016040518091039020600201805490509050600060028960405161273f9190613c14565b908152602001604051809103902060405180608001604052908160008201805461276890613ba6565b80601f016020809104026020016040519081016040528092919081815260200182805461279490613ba6565b80156127e15780601f106127b6576101008083540402835291602001916127e1565b820191906000526020600020905b8154815290600101906020018083116127c457829003601f168201915b505050505081526020016001820180546127fa90613ba6565b80601f016020809104026020016040519081016040528092919081815260200182805461282690613ba6565b80156128735780601f1061284857610100808354040283529160200191612873565b820191906000526020600020905b81548152906001019060200180831161285657829003601f168201915b5050505050815260200160028201805480602002602001604051908101604052809291908181526020016000905b8282101561294d5783829060005260206000200180546128c090613ba6565b80601f01602080910402602001604051908101604052809291908181526020018280546128ec90613ba6565b80156129395780601f1061290e57610100808354040283529160200191612939565b820191906000526020600020905b81548152906001019060200180831161291c57829003601f168201915b5050505050815260200190600101906128a1565b5050505081526020016003820160009054906101000a900460ff161515151581525050905082606001518015612984575080606001515b15612dce57600096505b818710156129df576129be836040015188815181106129b0576129af613c2b565b5b60200260200101518c612edb565b156129cc57600195506129df565b86806129d790613c89565b97505061298e565b600115158615151415612dcd57600096505b83871015612a9157612a228561010001518881518110612a1457612a13613c2b565b5b60200260200101518b612edb565b15612a7e578860048c604051612a389190613c14565b90815260200160405180910390206008018881548110612a5b57612a5a613c2b565b5b906000526020600020019080519060200190612a7892919061306a565b50612a91565b8680612a8990613c89565b9750506129f1565b600096505b81871015612dcc57612b6d60028b604051612ab19190613c14565b90815260200160405180910390206002018881548110612ad457612ad3613c2b565b5b906000526020600020018054612ae990613ba6565b80601f0160208091040260200160405190810160405280929190818152602001828054612b1590613ba6565b8015612b625780601f10612b3757610100808354040283529160200191612b62565b820191906000526020600020905b815481529060010190602001808311612b4557829003601f168201915b50505050508c612edb565b15612db957612b9c8760028c604051612b869190613c14565b9081526020016040518091039020600201612f34565b50600060028a604051612baf9190613c14565b90815260200160405180910390206002018054905090506000811415612cbc5760028a604051612bdf9190613c14565b90815260200160405180910390206002018c908060018154018082558091505060019003906000526020600020016000909190919091509080519060200190612c2992919061306a565b5060028a604051612c3a9190613c14565b908152602001604051809103902060020180600181540180825580915050600190039060005260206000200160006040518060400160405280600481526020017f6861636b0000000000000000000000000000000000000000000000000000000081525090919091509080519060200190612cb692919061306a565b50612da8565b8b60028b604051612ccd9190613c14565b9081526020016040518091039020600201600183612ceb9190613cd2565b81548110612cfc57612cfb613c2b565b5b906000526020600020019080519060200190612d1992919061306a565b5060028a604051612d2a9190613c14565b908152602001604051809103902060020180600181540180825580915050600190039060005260206000200160006040518060400160405280600481526020017f6861636b0000000000000000000000000000000000000000000000000000000081525090919091509080519060200190612da692919061306a565b505b600198505050505050505050612dda565b8680612dc490613c89565b975050612a96565b5b5b60009750505050505050505b9392505050565b6060600282604051612df39190613c14565b9081526020016040518091039020600201805480602002602001604051908101604052809291908181526020016000905b82821015612ed0578382906000526020600020018054612e4390613ba6565b80601f0160208091040260200160405190810160405280929190818152602001828054612e6f90613ba6565b8015612ebc5780601f10612e9157610100808354040283529160200191612ebc565b820191906000526020600020905b815481529060010190602001808311612e9f57829003601f168201915b505050505081526020019060010190612e24565b505050509050919050565b600081604051602001612eee9190613c14565b6040516020818303038152906040528051906020012083604051602001612f159190613c14565b6040516020818303038152906040528051906020012014905092915050565b600081805490508310612f4a5760009050613018565b60008390505b60018380549050612f619190613cd2565b811015612fd95782600182612f769190613d06565b81548110612f8757612f86613c2b565b5b90600052602060002001838281548110612fa457612fa3613c2b565b5b90600052602060002001908054612fba90613ba6565b612fc5929190613194565b508080612fd190613c89565b915050612f50565b508160018380549050612fec9190613cd2565b81548110612ffd57612ffc613c2b565b5b9060005260206000200160006130139190613221565b600190505b92915050565b6040518061012001604052806000815260200160608152602001606081526020016060815260200160608152602001606081526020016060815260200160608152602001606081525090565b82805461307690613ba6565b90600052602060002090601f01602090048101928261309857600085556130df565b82601f106130b157805160ff19168380011785556130df565b828001600101855582156130df579182015b828111156130de5782518255916020019190600101906130c3565b5b5090506130ec9190613261565b5090565b82805482825590600052602060002090810192821561313f579160200282015b8281111561313e57825182908051906020019061312e92919061306a565b5091602001919060010190613110565b5b50905061314c919061327e565b5090565b60405180608001604052806060815260200160608152602001606081526020016000151581525090565b604051806040016040528060608152602001606081525090565b8280546131a090613ba6565b90600052602060002090601f0160209004810192826131c25760008555613210565b82601f106131d35780548555613210565b8280016001018555821561321057600052602060002091601f016020900482015b8281111561320f5782548255916001019190600101906131f4565b5b50905061321d9190613261565b5090565b50805461322d90613ba6565b6000825580601f1061323f575061325e565b601f01602090049060005260206000209081019061325d9190613261565b5b50565b5b8082111561327a576000816000905550600101613262565b5090565b5b8082111561329e57600081816132959190613221565b5060010161327f565b5090565b6000604051905090565b600080fd5b600080fd5b600080fd5b600080fd5b6000601f19601f8301169050919050565b7f4e487b7100000000000000000000000000000000000000000000000000000000600052604160045260246000fd5b613309826132c0565b810181811067ffffffffffffffff82111715613328576133276132d1565b5b80604052505050565b600061333b6132a2565b90506133478282613300565b919050565b600067ffffffffffffffff821115613367576133666132d1565b5b613370826132c0565b9050602081019050919050565b82818337600083830152505050565b600061339f61339a8461334c565b613331565b9050828152602081018484840111156133bb576133ba6132bb565b5b6133c684828561337d565b509392505050565b600082601f8301126133e3576133e26132b6565b5b81356133f384826020860161338c565b91505092915050565b600060208284031215613412576134116132ac565b5b600082013567ffffffffffffffff8111156134305761342f6132b1565b5b61343c848285016133ce565b91505092915050565b6000819050919050565b61345881613445565b82525050565b600081519050919050565b600082825260208201905092915050565b60005b8381101561349857808201518184015260208101905061347d565b838111156134a7576000848401525b50505050565b60006134b88261345e565b6134c28185613469565b93506134d281856020860161347a565b6134db816132c0565b840191505092915050565b6000610100820190506134fc600083018b61344f565b818103602083015261350e818a6134ad565b9050818103604083015261352281896134ad565b9050818103606083015261353681886134ad565b9050818103608083015261354a81876134ad565b905081810360a083015261355e81866134ad565b905081810360c083015261357281856134ad565b905081810360e083015261358681846134ad565b90509998505050505050505050565b61359e81613445565b81146135a957600080fd5b50565b6000813590506135bb81613595565b92915050565b600080600080600080600080610100898b0312156135e2576135e16132ac565b5b600089013567ffffffffffffffff811115613600576135ff6132b1565b5b61360c8b828c016133ce565b985050602061361d8b828c016135ac565b975050604089013567ffffffffffffffff81111561363e5761363d6132b1565b5b61364a8b828c016133ce565b965050606089013567ffffffffffffffff81111561366b5761366a6132b1565b5b6136778b828c016133ce565b955050608089013567ffffffffffffffff811115613698576136976132b1565b5b6136a48b828c016133ce565b94505060a089013567ffffffffffffffff8111156136c5576136c46132b1565b5b6136d18b828c016133ce565b93505060c089013567ffffffffffffffff8111156136f2576136f16132b1565b5b6136fe8b828c016133ce565b92505060e089013567ffffffffffffffff81111561371f5761371e6132b1565b5b61372b8b828c016133ce565b9150509295985092959890939650565b60008115159050919050565b6137508161373b565b82525050565b600060208201905061376b6000830184613747565b92915050565b6000604082019050818103600083015261378b81856134ad565b9050818103602083015261379f81846134ad565b90509392505050565b600060608201905081810360008301526137c281866134ad565b905081810360208301526137d681856134ad565b90506137e56040830184613747565b949350505050565b6000602082019050613802600083018461344f565b92915050565b600080600060608486031215613821576138206132ac565b5b600084013567ffffffffffffffff81111561383f5761383e6132b1565b5b61384b868287016133ce565b935050602084013567ffffffffffffffff81111561386c5761386b6132b1565b5b613878868287016133ce565b925050604084013567ffffffffffffffff811115613899576138986132b1565b5b6138a5868287016133ce565b9150509250925092565b6000602082840312156138c5576138c46132ac565b5b60006138d3848285016135ac565b91505092915050565b600060e0820190506138f1600083018a61344f565b818103602083015261390381896134ad565b9050818103604083015261391781886134ad565b9050818103606083015261392b81876134ad565b9050818103608083015261393f81866134ad565b905081810360a083015261395381856134ad565b905081810360c083015261396781846134ad565b905098975050505050505050565b600073ffffffffffffffffffffffffffffffffffffffff82169050919050565b60006139a082613975565b9050919050565b6139b081613995565b82525050565b60006020820190506139cb60008301846139a7565b92915050565b600080604083850312156139e8576139e76132ac565b5b600083013567ffffffffffffffff811115613a0657613a056132b1565b5b613a12858286016133ce565b925050602083013567ffffffffffffffff811115613a3357613a326132b1565b5b613a3f858286016133ce565b9150509250929050565b600081519050919050565b600082825260208201905092915050565b6000819050602082019050919050565b600082825260208201905092915050565b6000613a918261345e565b613a9b8185613a75565b9350613aab81856020860161347a565b613ab4816132c0565b840191505092915050565b6000613acb8383613a86565b905092915050565b6000602082019050919050565b6000613aeb82613a49565b613af58185613a54565b935083602082028501613b0785613a65565b8060005b85811015613b435784840389528151613b248582613abf565b9450613b2f83613ad3565b925060208a01995050600181019050613b0b565b50829750879550505050505092915050565b60006020820190508181036000830152613b6f8184613ae0565b905092915050565b7f4e487b7100000000000000000000000000000000000000000000000000000000600052602260045260246000fd5b60006002820490506001821680613bbe57607f821691505b60208210811415613bd257613bd1613b77565b5b50919050565b600081905092915050565b6000613bee8261345e565b613bf88185613bd8565b9350613c0881856020860161347a565b80840191505092915050565b6000613c208284613be3565b915081905092915050565b7f4e487b7100000000000000000000000000000000000000000000000000000000600052603260045260246000fd5b7f4e487b7100000000000000000000000000000000000000000000000000000000600052601160045260246000fd5b6000613c9482613445565b91507fffffffffffffffffffffffffffffffffffffffffffffffffffffffffffffffff821415613cc757613cc6613c5a565b5b600182019050919050565b6000613cdd82613445565b9150613ce883613445565b925082821015613cfb57613cfa613c5a565b5b828203905092915050565b6000613d1182613445565b9150613d1c83613445565b9250827fffffffffffffffffffffffffffffffffffffffffffffffffffffffffffffffff03821115613d5157613d50613c5a565b5b82820190509291505056fea2646970667358221220d8e92c424d6034b2d4b2cd11c72999a91f042b0fc9420ca5cf5271abef0832a864736f6c634300080c0033",
  "immutableReferences": {},
  "source": "pragma solidity ^0.8.12;\r\npragma experimental ABIEncoderV2;\r\n\r\ncontract MyContract {\r\n  address public owner;\r\n//   create a customer object\r\nuint public data;\r\n  function date() public view returns (uint) {\r\n    return data;\r\n  }\r\n\r\n  function setData(uint _data) external {\r\n    data = _data;\r\n \r\n  }\r\n\r\n    struct Customer {\r\n        string name;\r\n        string phone;\r\n        string[] code;\r\n        bool isValue;\r\n    }\r\n    // create a customer array\r\n    mapping(string => Customer) public CustomerArr;\r\n\r\n    //create retailer object\r\n    struct Retailer {\r\n        string name;\r\n        string location;\r\n    }\r\n    //create retailer array\r\n    mapping(string => Retailer) public retailerArr;\r\n\r\n    //create QR code object\r\n    struct QRcode {\r\n        uint status;\r\n        string brand;\r\n        string model;\r\n        string description;\r\n        string manufactuerName;\r\n        string manufactuerLocation;\r\n        string manufactuerTimestamp;\r\n        string retailer;\r\n        string[] customers;\r\n    }\r\n    //create QR code array\r\n    mapping(string => QRcode) public qrArr;\r\n\r\n    //function to create a customer\r\n    function createCustomer(string memory _hashedEmail , string memory _name, string memory _phone) public payable returns (bool) {\r\n        if (CustomerArr[_hashedEmail].isValue) {\r\n            return false;\r\n        }\r\n        Customer memory new_customer;\r\n        new_customer.name = _name;\r\n        new_customer.phone = _phone;\r\n        new_customer.isValue =true;\r\n        CustomerArr[_hashedEmail] = new_customer;\r\n        return true;\r\n\r\n    }\r\n    \r\n    // function to create a retailer\r\n    function createRetailer(string memory _hashedEmail , string memory _name, string memory _location) public payable returns (bool) {\r\n        \r\n        Retailer memory new_retailer;\r\n        new_retailer.name = _name;\r\n        new_retailer.location = _location;\r\n        retailerArr[_hashedEmail] = new_retailer;\r\n        return true;\r\n\r\n    }\r\n\r\n    //function to create a QR code\r\n    function createCode(string memory _code, uint  _status , string memory _brand, string memory _model, string memory _description, string memory _manufactuerName, string memory _manufactuerLocation, string memory _manufactuerTimestamp) public payable returns (bool) {\r\n        QRcode memory new_qr;\r\n        new_qr.status = _status;\r\n        new_qr.brand = _brand;\r\n        new_qr.model = _model;\r\n        new_qr.description = _description;\r\n        new_qr.manufactuerName = _manufactuerName;\r\n        new_qr.manufactuerLocation = _manufactuerLocation;\r\n        new_qr.manufactuerTimestamp = _manufactuerTimestamp;\r\n        qrArr[_code] = new_qr;\r\n        return true;\r\n    }\r\n\r\n    // function to add retailer to QR code\r\n    function addRetailerToCode(string memory _code, string memory _retailerHashedEmail) public payable returns (bool) {\r\n        \r\n        qrArr[_code].retailer = _retailerHashedEmail;\r\n        return true;\r\n    }\r\n\r\n    //function to get QR code details of not a owner\r\n    function getNotOwnedCodeDetails(string memory _code) public view returns ( uint,string memory, string memory, string memory, string memory, string memory, string memory) {\r\n        QRcode memory qr = qrArr[_code];\r\n        return (qr.status, qr.brand, qr.model, qr.description, qr.manufactuerName, qr.manufactuerLocation, qr.manufactuerTimestamp);\r\n    }\r\n\r\n    // function to QR code details of owner\r\n    function getOwnedCodeDetails(string memory _code) public view returns ( string memory, string memory) {\r\n        QRcode memory qr = qrArr[_code];\r\n        return (retailerArr[qr.retailer].name, retailerArr[qr.retailer].location);\r\n    }\r\n\r\n    //function to get Qr codes of customer \r\n    function getCodes(string memory _customer) public view returns(string[] memory) {\r\n        return CustomerArr[_customer].code;\r\n    }\r\n\r\n    // Function to report stolen\r\n    function reportStolen(string memory _code, string memory _customer) public payable returns (bool) {\r\n        uint i;\r\n        // Checking if the customer exists\r\n        if (CustomerArr[_customer].isValue) {\r\n            // Checking if the customer owns the product\r\n            for (i = 0; i < CustomerArr[_customer].code.length; i++) {\r\n                if (compareStrings(CustomerArr[_customer].code[i], _code)) {\r\n                    qrArr[_code].status = 2;        // Changing the status to stolen\r\n                }\r\n                return true;\r\n            }\r\n        }\r\n        return false;\r\n    }\r\n\r\n    function changeOwner(string memory _code, string memory _oldCustomer, string memory _newCustomer) public payable returns (bool) {\r\n        uint i;\r\n        bool flag = false;\r\n         //Creating objects for code,oldCustomer,newCustomer\r\n        QRcode memory product = qrArr[_code];\r\n        uint len_product_customer = product.customers.length;\r\n        Customer memory oldCustomer = CustomerArr[_oldCustomer];\r\n        uint len_oldCustomer_code = CustomerArr[_oldCustomer].code.length;\r\n        Customer memory newCustomer = CustomerArr[_newCustomer];\r\n\r\n        //Check if oldCustomer and newCustomer have an account\r\n        if (oldCustomer.isValue && newCustomer.isValue) {\r\n            //Check if oldCustomer is owner\r\n            for (i = 0; i < len_oldCustomer_code; i++) {\r\n                if (compareStrings(oldCustomer.code[i], _code)) {\r\n                    flag = true;\r\n                    break;\r\n                }\r\n            }\r\n\r\n            if (flag == true) {\r\n                //Swaping oldCustomer with newCustomer in product\r\n                for (i = 0; i < len_product_customer; i++) {\r\n                    if (compareStrings(product.customers[i], _oldCustomer)) {\r\n                        qrArr[_code].customers[i] = _newCustomer;\r\n                        break;\r\n                    }\r\n                }\r\n\r\n                // Removing product from oldCustomer\r\n                for (i = 0; i < len_oldCustomer_code; i++) {\r\n                    if (compareStrings(CustomerArr[_oldCustomer].code[i], _code)) {\r\n                        remove(i, CustomerArr[_oldCustomer].code);\r\n                        // Adding product to newCustomer\r\n                        uint len = CustomerArr[_newCustomer].code.length;\r\n                        if(len == 0){\r\n                            CustomerArr[_newCustomer].code.push(_code);\r\n                            CustomerArr[_newCustomer].code.push(\"hack\");\r\n                        } else {\r\n                            CustomerArr[_newCustomer].code[len-1] = _code;\r\n                            CustomerArr[_newCustomer].code.push(\"hack\");\r\n                        }\r\n                        return true;\r\n                    }\r\n                }\r\n            }\r\n        }\r\n        return false;\r\n    }\r\n\r\n\r\n    function initialOwner(string memory _code, string memory _retailer, string memory _customer) public payable returns(bool) {\r\n            uint i;\r\n            if (compareStrings(qrArr[_code].retailer, _retailer)) {       // Check if retailer owns the prodct\r\n                if (CustomerArr[_customer].isValue) {                       // Check if Customer has an account\r\n                    qrArr[_code].customers.push(_customer);               // Adding customer in code\r\n                    qrArr[_code].status = 1;\r\n                    uint len = CustomerArr[_customer].code.length;\r\n                    if(len == 0) {\r\n                        CustomerArr[_customer].code.push(_code);\r\n                        CustomerArr[_customer].code.push(\"hack\");\r\n                    } else {\r\n                    CustomerArr[_customer].code[len-1] = _code;\r\n                    CustomerArr[_customer].code.push(\"hack\");\r\n                    }\r\n                    return true;\r\n                }\r\n            }\r\n            return false;\r\n        }\r\n\r\n\r\n    // Cannot directly compare strings in Solidity\r\n    // This function hashes the 2 strings and then compares the 2 hashes\r\n    function compareStrings(string memory  a, string memory  b) internal returns (bool) {\r\n    \treturn keccak256(abi.encodePacked(a)) == keccak256(abi.encodePacked(b));\r\n    }\r\n\r\n    // Function to delete an element from an array\r\n    function remove(uint index, string[] storage array) internal returns(bool) {\r\n        if (index >= array.length)\r\n            return false;\r\n\r\n        for (uint i = index; i < array.length-1; i++) {\r\n            array[i] = array[i+1];\r\n        }\r\n        delete array[array.length-1];\r\n        // array.length-=1;\r\n        return true;\r\n    }\r\n\r\n    // Function to convert string to bytes32\r\n    function stringToBytes32(string memory source) internal returns (bytes32 result) {\r\n        bytes memory tempEmptyStringTest = bytes(source);\r\n        if (tempEmptyStringTest.length == 0) {\r\n            return 0x0;\r\n        }\r\n        assembly {\r\n            result := mload(add(source, 32))\r\n        }\r\n    }\r\n\r\n\r\n    \r\n\r\n\r\n\r\n}",
  "sourcePath": "D:\\fake_product\\contracts\\block.sol",
  "compiler": {
    "name": "solc",
    "version": "0.8.12+commit.f00d7308.Emscripten.clang"
  },
  "schemaVersion": "3.4.6",
  "updatedAt": "2022-03-28T15:01:39.466Z",
  "devdoc": {
    "kind": "dev",
    "methods": {},
    "version": 1
  },
  "userdoc": {
    "kind": "user",
    "methods": {},
    "version": 1
  }
}